{
  "_format": "hh-sol-artifact-1",
  "contractName": "HealthSync",
  "sourceName": "contracts/HealthSync.sol",
  "abi": [
    {
      "inputs": [
        {
          "internalType": "address",
          "name": "_addressToAdd",
          "type": "address"
        }
      ],
      "name": "addToWhitelist",
      "outputs": [],
      "stateMutability": "nonpayable",
      "type": "function"
    },
    {
      "inputs": [
        {
          "internalType": "address",
          "name": "userAddress",
          "type": "address"
        }
      ],
      "name": "getWhitelist",
      "outputs": [
        {
          "internalType": "address[]",
          "name": "",
          "type": "address[]"
        }
      ],
      "stateMutability": "view",
      "type": "function"
    },
    {
      "inputs": [
        {
          "internalType": "address",
          "name": "userAddress",
          "type": "address"
        }
      ],
      "name": "isWhitelisted",
      "outputs": [
        {
          "internalType": "uint256",
          "name": "",
          "type": "uint256"
        }
      ],
      "stateMutability": "view",
      "type": "function"
    },
    {
      "inputs": [
        {
          "internalType": "address",
          "name": "_addressToRemove",
          "type": "address"
        }
      ],
      "name": "removeFromWhitelist",
      "outputs": [],
      "stateMutability": "nonpayable",
      "type": "function"
    }
  ],
  "bytecode": "0x608060405234801561001057600080fd5b50610431806100206000396000f3fe608060405234801561001057600080fd5b506004361061004c5760003560e01c806330edc0f5146100515780633af32abf1461007a5780638ab1d6811461009b578063e43252d7146100b0575b600080fd5b61006461005f36600461030a565b6100fb565b604051610071919061033a565b60405180910390f35b61008d61008836600461030a565b61016f565b604051908152602001610071565b6100ae6100a936600461030a565b6101ee565b005b6100ae6100be36600461030a565b336000908152602081815260408220805460018101825590835291200180546001600160a01b0319166001600160a01b0392909216919091179055565b6001600160a01b0381166000908152602081815260409182902080548351818402810184019094528084526060939283018282801561016357602002820191906000526020600020905b81546001600160a01b03168152600190910190602001808311610145575b50505050509050919050565b6001600160a01b0381166000908152602081905260408120815b81548110156101e457336001600160a01b03168282815481106101ae576101ae610387565b6000918252602090912001546001600160a01b0316036101d2575060009392505050565b806101dc816103b3565b915050610189565b5060019392505050565b336000908152602081905260408120905b815481101561030557826001600160a01b031682828154811061022457610224610387565b6000918252602090912001546001600160a01b0316036102f3578154829061024e906001906103cc565b8154811061025e5761025e610387565b9060005260206000200160009054906101000a90046001600160a01b031682828154811061028e5761028e610387565b9060005260206000200160006101000a8154816001600160a01b0302191690836001600160a01b03160217905550818054806102cc576102cc6103e5565b600082815260209020810160001990810180546001600160a01b0319169055019055505050565b806102fd816103b3565b9150506101ff565b505050565b60006020828403121561031c57600080fd5b81356001600160a01b038116811461033357600080fd5b9392505050565b6020808252825182820181905260009190848201906040850190845b8181101561037b5783516001600160a01b031683529284019291840191600101610356565b50909695505050505050565b634e487b7160e01b600052603260045260246000fd5b634e487b7160e01b600052601160045260246000fd5b6000600182016103c5576103c561039d565b5060010190565b818103818111156103df576103df61039d565b92915050565b634e487b7160e01b600052603160045260246000fdfea264697066735822122093eb8a2b24c4cfc2e331c5e411d4bb06a4df2d6c01fa0d35fe436fb93c144ada64736f6c63430008120033",
  "linkReferences": {},
  "deployedLinkReferences": {}
}