{
  "_format": "hh-sol-artifact-1",
  "contractName": "HealthSyncNFTFactory",
  "sourceName": "contracts/HealthSyncNFT.sol",
  "abi": [
    {
      "anonymous": false,
      "inputs": [
        {
          "indexed": false,
          "internalType": "address",
          "name": "newNFT",
          "type": "address"
        },
        {
          "indexed": false,
          "internalType": "address",
          "name": "author",
          "type": "address"
        }
      ],
      "name": "NFTContractDeployed",
      "type": "event"
    },
    {
      "inputs": [
        {
          "internalType": "string",
          "name": "name",
          "type": "string"
        },
        {
          "internalType": "string",
          "name": "symbol",
          "type": "string"
        },
        {
          "internalType": "string",
          "name": "metadataCID",
          "type": "string"
        },
        {
          "internalType": "address[]",
          "name": "initialOwners",
          "type": "address[]"
        }
      ],
      "name": "createNFT",
      "outputs": [
        {
          "internalType": "address",
          "name": "",
          "type": "address"
        }
      ],
      "stateMutability": "nonpayable",
      "type": "function"
    },
    {
      "inputs": [
        {
          "internalType": "string",
          "name": "metadataCID",
          "type": "string"
        }
      ],
      "name": "findContractByCID",
      "outputs": [
        {
          "internalType": "address",
          "name": "",
          "type": "address"
        }
      ],
      "stateMutability": "view",
      "type": "function"
    },
    {
      "inputs": [
        {
          "internalType": "string",
          "name": "",
          "type": "string"
        }
      ],
      "name": "nftContractsByCID",
      "outputs": [
        {
          "internalType": "address",
          "name": "",
          "type": "address"
        }
      ],
      "stateMutability": "view",
      "type": "function"
    }
  ],
  "bytecode": "0x608060405234801561001057600080fd5b506124ab806100206000396000f3fe60806040523480156200001157600080fd5b5060043610620000465760003560e01c80634052b8e2146200004b5780634c1b3dbd146200009e578063db873f2714620000b5575b600080fd5b620000826200005c36600462000340565b80516020818301810180516000825292820191909301209152546001600160a01b031681565b6040516001600160a01b03909116815260200160405180910390f35b62000082620000af36600462000340565b620000cc565b62000082620000c636600462000381565b620000fe565b60008082604051620000df9190620004e4565b908152604051908190036020019020546001600160a01b031692915050565b600080858585604051620001129062000271565b620001209392919062000530565b604051809103906000f0801580156200013d573d6000803e3d6000fd5b50905060005b8351811015620001ef57816001600160a01b0316636a62784285838151811062000171576200017162000579565b60200260200101516040518263ffffffff1660e01b8152600401620001a591906001600160a01b0391909116815260200190565b600060405180830381600087803b158015620001c057600080fd5b505af1158015620001d5573d6000803e3d6000fd5b505050508080620001e6906200058f565b91505062000143565b5080600085604051620002039190620004e4565b908152604080516020928190038301812080546001600160a01b0319166001600160a01b0395861617905592841683523391830182905290917f23db1d6024904c1be51321da8c4835a5eb05cfc490ee1c29cb5fb0826db4d15c910160405180910390a15095945050505050565b611ebe80620005b883390190565b634e487b7160e01b600052604160045260246000fd5b604051601f8201601f1916810167ffffffffffffffff81118282101715620002c157620002c16200027f565b604052919050565b600082601f830112620002db57600080fd5b813567ffffffffffffffff811115620002f857620002f86200027f565b6200030d601f8201601f191660200162000295565b8181528460208386010111156200032357600080fd5b816020850160208301376000918101602001919091529392505050565b6000602082840312156200035357600080fd5b813567ffffffffffffffff8111156200036b57600080fd5b6200037984828501620002c9565b949350505050565b600080600080608085870312156200039857600080fd5b843567ffffffffffffffff80821115620003b157600080fd5b620003bf88838901620002c9565b9550602091508187013581811115620003d757600080fd5b620003e589828a01620002c9565b955050604087013581811115620003fb57600080fd5b6200040989828a01620002c9565b9450506060870135818111156200041f57600080fd5b8701601f810189136200043157600080fd5b8035828111156200044657620004466200027f565b8060051b92506200045984840162000295565b818152928201840192848101908b8511156200047457600080fd5b928501925b84841015620004ae57833592506001600160a01b03831683146200049d5760008081fd5b828252928501929085019062000479565b989b979a50959850505050505050565b60005b83811015620004db578181015183820152602001620004c1565b50506000910152565b60008251620004f8818460208701620004be565b9190910192915050565b600081518084526200051c816020860160208601620004be565b601f01601f19169290920160200192915050565b60608152600062000545606083018662000502565b828103602084015262000559818662000502565b905082810360408401526200056f818562000502565b9695505050505050565b634e487b7160e01b600052603260045260246000fd5b600060018201620005b057634e487b7160e01b600052601160045260246000fd5b506001019056fe60806040526000600c553480156200001657600080fd5b5060405162001ebe38038062001ebe8339810160408190526200003991620001a8565b82826000620000498382620002c8565b506001620000588282620002c8565b505050620000756200006f6200008d60201b60201c565b62000091565b600b620000838282620002c8565b5050505062000394565b3390565b600a80546001600160a01b038381166001600160a01b0319831681179093556040519116919082907f8be0079c531659141344cd1fd0a4f28419497f9722a3daafe3b4186f6b6457e090600090a35050565b634e487b7160e01b600052604160045260246000fd5b600082601f8301126200010b57600080fd5b81516001600160401b0380821115620001285762000128620000e3565b604051601f8301601f19908116603f01168101908282118183101715620001535762000153620000e3565b816040528381526020925086838588010111156200017057600080fd5b600091505b8382101562000194578582018301518183018401529082019062000175565b600093810190920192909252949350505050565b600080600060608486031215620001be57600080fd5b83516001600160401b0380821115620001d657600080fd5b620001e487838801620000f9565b94506020860151915080821115620001fb57600080fd5b6200020987838801620000f9565b935060408601519150808211156200022057600080fd5b506200022f86828701620000f9565b9150509250925092565b600181811c908216806200024e57607f821691505b6020821081036200026f57634e487b7160e01b600052602260045260246000fd5b50919050565b601f821115620002c357600081815260208120601f850160051c810160208610156200029e5750805b601f850160051c820191505b81811015620002bf57828155600101620002aa565b5050505b505050565b81516001600160401b03811115620002e457620002e4620000e3565b620002fc81620002f5845462000239565b8462000275565b602080601f8311600181146200033457600084156200031b5750858301515b600019600386901b1c1916600185901b178555620002bf565b600085815260208120601f198616915b82811015620003655788860151825594840194600190910190840162000344565b5085821015620003845787850151600019600388901b60f8161c191681555b5050505050600190811b01905550565b611b1a80620003a46000396000f3fe608060405234801561001057600080fd5b50600436106101425760003560e01c80636352211e116100b857806395d89b411161007c57806395d89b4114610291578063a22cb46514610299578063b88d4fde146102ac578063c87b56dd146102bf578063e985e9c5146102d2578063f2fde38b1461030e57600080fd5b80636352211e1461023f5780636a6278421461025257806370a0823114610265578063715018a6146102785780638da5cb5b1461028057600080fd5b806318160ddd1161010a57806318160ddd146101d957806323b872dd146101eb5780632f745c59146101fe57806342842e0e146102115780634f6ccce71461022457806358871c461461023757600080fd5b806301ffc9a71461014757806306fdde031461016f578063081812fc14610184578063095ea7b3146101af57806316c12746146101c4575b600080fd5b61015a6101553660046115de565b610321565b60405190151581526020015b60405180910390f35b61017761034c565b604051610166919061164b565b61019761019236600461165e565b6103de565b6040516001600160a01b039091168152602001610166565b6101c26101bd366004611693565b610405565b005b6101cc61051f565b60405161016691906116bd565b6008545b604051908152602001610166565b6101c26101f936600461170a565b6105c7565b6101dd61020c366004611693565b6105f8565b6101c261021f36600461170a565b61068e565b6101dd61023236600461165e565b6106a9565b61017761073c565b61019761024d36600461165e565b6107ca565b6101c2610260366004611746565b61082a565b6101dd610273366004611746565b610868565b6101c26108ee565b600a546001600160a01b0316610197565b610177610902565b6101c26102a7366004611761565b610911565b6101c26102ba3660046117b3565b610920565b6101776102cd36600461165e565b610958565b61015a6102e036600461188f565b6001600160a01b03918216600090815260056020908152604080832093909416825291909152205460ff1690565b6101c261031c366004611746565b6109cc565b60006001600160e01b0319821663780e9d6360e01b1480610346575061034682610a45565b92915050565b60606000805461035b906118c2565b80601f0160208091040260200160405190810160405280929190818152602001828054610387906118c2565b80156103d45780601f106103a9576101008083540402835291602001916103d4565b820191906000526020600020905b8154815290600101906020018083116103b757829003601f168201915b5050505050905090565b60006103e982610a95565b506000908152600460205260409020546001600160a01b031690565b6000610410826107ca565b9050806001600160a01b0316836001600160a01b0316036104825760405162461bcd60e51b815260206004820152602160248201527f4552433732313a20617070726f76616c20746f2063757272656e74206f776e656044820152603960f91b60648201526084015b60405180910390fd5b336001600160a01b038216148061049e575061049e81336102e0565b6105105760405162461bcd60e51b815260206004820152603d60248201527f4552433732313a20617070726f76652063616c6c6572206973206e6f7420746f60448201527f6b656e206f776e6572206f7220617070726f76656420666f7220616c6c0000006064820152608401610479565b61051a8383610af4565b505050565b60606000600c5467ffffffffffffffff81111561053e5761053e61179d565b604051908082528060200260200182016040528015610567578160200160208202803683370190505b50905060005b600c548110156105c15761058561024d82600161190c565b8282815181106105975761059761191f565b6001600160a01b0390921660209283029190910190910152806105b981611935565b91505061056d565b50919050565b6105d13382610b62565b6105ed5760405162461bcd60e51b81526004016104799061194e565b61051a838383610be1565b600061060383610868565b82106106655760405162461bcd60e51b815260206004820152602b60248201527f455243373231456e756d657261626c653a206f776e657220696e646578206f7560448201526a74206f6620626f756e647360a81b6064820152608401610479565b506001600160a01b03919091166000908152600660209081526040808320938352929052205490565b61051a83838360405180602001604052806000815250610920565b60006106b460085490565b82106107175760405162461bcd60e51b815260206004820152602c60248201527f455243373231456e756d657261626c653a20676c6f62616c20696e646578206f60448201526b7574206f6620626f756e647360a01b6064820152608401610479565b6008828154811061072a5761072a61191f565b90600052602060002001549050919050565b600b8054610749906118c2565b80601f0160208091040260200160405190810160405280929190818152602001828054610775906118c2565b80156107c25780601f10610797576101008083540402835291602001916107c2565b820191906000526020600020905b8154815290600101906020018083116107a557829003601f168201915b505050505081565b6000818152600260205260408120546001600160a01b0316806103465760405162461bcd60e51b8152602060048201526018602482015277115490cdcc8c4e881a5b9d985b1a59081d1bdad95b88125160421b6044820152606401610479565b610832610d52565b6000600c546001610843919061190c565b905061084f8282610dac565b600c805490600061085f83611935565b91905055505050565b60006001600160a01b0382166108d25760405162461bcd60e51b815260206004820152602960248201527f4552433732313a2061646472657373207a65726f206973206e6f7420612076616044820152683634b21037bbb732b960b91b6064820152608401610479565b506001600160a01b031660009081526003602052604090205490565b6108f6610d52565b6109006000610f45565b565b60606001805461035b906118c2565b61091c338383610f97565b5050565b61092a3383610b62565b6109465760405162461bcd60e51b81526004016104799061194e565b61095284848484611065565b50505050565b606061096382610a95565b600061097a60408051602081019091526000815290565b9050600081511161099a57604051806020016040528060008152506109c5565b806109a484611098565b6040516020016109b592919061199b565b6040516020818303038152906040525b9392505050565b6109d4610d52565b6001600160a01b038116610a395760405162461bcd60e51b815260206004820152602660248201527f4f776e61626c653a206e6577206f776e657220697320746865207a65726f206160448201526564647265737360d01b6064820152608401610479565b610a4281610f45565b50565b60006001600160e01b031982166380ac58cd60e01b1480610a7657506001600160e01b03198216635b5e139f60e01b145b8061034657506301ffc9a760e01b6001600160e01b0319831614610346565b6000818152600260205260409020546001600160a01b0316610a425760405162461bcd60e51b8152602060048201526018602482015277115490cdcc8c4e881a5b9d985b1a59081d1bdad95b88125160421b6044820152606401610479565b600081815260046020526040902080546001600160a01b0319166001600160a01b0384169081179091558190610b29826107ca565b6001600160a01b03167f8c5be1e5ebec7d5bd14f71427d1e84f3dd0314c0f7b2291e5b200ac8c7c3b92560405160405180910390a45050565b600080610b6e836107ca565b9050806001600160a01b0316846001600160a01b03161480610bb557506001600160a01b0380821660009081526005602090815260408083209388168352929052205460ff165b80610bd95750836001600160a01b0316610bce846103de565b6001600160a01b0316145b949350505050565b826001600160a01b0316610bf4826107ca565b6001600160a01b031614610c1a5760405162461bcd60e51b8152600401610479906119ca565b6001600160a01b038216610c7c5760405162461bcd60e51b8152602060048201526024808201527f4552433732313a207472616e7366657220746f20746865207a65726f206164646044820152637265737360e01b6064820152608401610479565b610c89838383600161112b565b826001600160a01b0316610c9c826107ca565b6001600160a01b031614610cc25760405162461bcd60e51b8152600401610479906119ca565b600081815260046020908152604080832080546001600160a01b03199081169091556001600160a01b0387811680865260038552838620805460001901905590871680865283862080546001019055868652600290945282852080549092168417909155905184937fddf252ad1be2c89b69c2b068fc378daa952ba7f163c4a11628f55a4df523b3ef91a4505050565b600a546001600160a01b031633146109005760405162461bcd60e51b815260206004820181905260248201527f4f776e61626c653a2063616c6c6572206973206e6f7420746865206f776e65726044820152606401610479565b6001600160a01b038216610e025760405162461bcd60e51b815260206004820181905260248201527f4552433732313a206d696e7420746f20746865207a65726f20616464726573736044820152606401610479565b6000818152600260205260409020546001600160a01b031615610e675760405162461bcd60e51b815260206004820152601c60248201527f4552433732313a20746f6b656e20616c7265616479206d696e746564000000006044820152606401610479565b610e7560008383600161112b565b6000818152600260205260409020546001600160a01b031615610eda5760405162461bcd60e51b815260206004820152601c60248201527f4552433732313a20746f6b656e20616c7265616479206d696e746564000000006044820152606401610479565b6001600160a01b038216600081815260036020908152604080832080546001019055848352600290915280822080546001600160a01b0319168417905551839291907fddf252ad1be2c89b69c2b068fc378daa952ba7f163c4a11628f55a4df523b3ef908290a45050565b600a80546001600160a01b038381166001600160a01b0319831681179093556040519116919082907f8be0079c531659141344cd1fd0a4f28419497f9722a3daafe3b4186f6b6457e090600090a35050565b816001600160a01b0316836001600160a01b031603610ff85760405162461bcd60e51b815260206004820152601960248201527f4552433732313a20617070726f766520746f2063616c6c6572000000000000006044820152606401610479565b6001600160a01b03838116600081815260056020908152604080832094871680845294825291829020805460ff191686151590811790915591519182527f17307eab39ab6107e8899845ad3d59bd9653f200f220920489ca2b5937696c31910160405180910390a3505050565b611070848484610be1565b61107c8484848461125f565b6109525760405162461bcd60e51b815260040161047990611a0f565b606060006110a583611360565b600101905060008167ffffffffffffffff8111156110c5576110c561179d565b6040519080825280601f01601f1916602001820160405280156110ef576020820181803683370190505b5090508181016020015b600019016f181899199a1a9b1b9c1cb0b131b232b360811b600a86061a8153600a85049450846110f957509392505050565b600181111561119a5760405162461bcd60e51b815260206004820152603560248201527f455243373231456e756d657261626c653a20636f6e7365637574697665207472604482015274185b9cd9995c9cc81b9bdd081cdd5c1c1bdc9d1959605a1b6064820152608401610479565b816001600160a01b0385166111f6576111f181600880546000838152600960205260408120829055600182018355919091527ff3f7a9fe364faab93b216da50a3214154f22a0a2b415b23a84c8169e8b636ee30155565b611219565b836001600160a01b0316856001600160a01b031614611219576112198582611438565b6001600160a01b03841661123557611230816114d5565b611258565b846001600160a01b0316846001600160a01b031614611258576112588482611584565b5050505050565b60006001600160a01b0384163b1561135557604051630a85bd0160e11b81526001600160a01b0385169063150b7a02906112a3903390899088908890600401611a61565b6020604051808303816000875af19250505080156112de575060408051601f3d908101601f191682019092526112db91810190611a9e565b60015b61133b573d80801561130c576040519150601f19603f3d011682016040523d82523d6000602084013e611311565b606091505b5080516000036113335760405162461bcd60e51b815260040161047990611a0f565b805181602001fd5b6001600160e01b031916630a85bd0160e11b149050610bd9565b506001949350505050565b60008072184f03e93ff9f4daa797ed6e38ed64bf6a1f0160401b831061139f5772184f03e93ff9f4daa797ed6e38ed64bf6a1f0160401b830492506040015b6d04ee2d6d415b85acef810000000083106113cb576d04ee2d6d415b85acef8100000000830492506020015b662386f26fc1000083106113e957662386f26fc10000830492506010015b6305f5e1008310611401576305f5e100830492506008015b612710831061141557612710830492506004015b60648310611427576064830492506002015b600a83106103465760010192915050565b6000600161144584610868565b61144f9190611abb565b6000838152600760205260409020549091508082146114a2576001600160a01b03841660009081526006602090815260408083208584528252808320548484528184208190558352600790915290208190555b5060009182526007602090815260408084208490556001600160a01b039094168352600681528383209183525290812055565b6008546000906114e790600190611abb565b6000838152600960205260408120546008805493945090928490811061150f5761150f61191f565b9060005260206000200154905080600883815481106115305761153061191f565b600091825260208083209091019290925582815260099091526040808220849055858252812055600880548061156857611568611ace565b6001900381819060005260206000200160009055905550505050565b600061158f83610868565b6001600160a01b039093166000908152600660209081526040808320868452825280832085905593825260079052919091209190915550565b6001600160e01b031981168114610a4257600080fd5b6000602082840312156115f057600080fd5b81356109c5816115c8565b60005b838110156116165781810151838201526020016115fe565b50506000910152565b600081518084526116378160208601602086016115fb565b601f01601f19169290920160200192915050565b6020815260006109c5602083018461161f565b60006020828403121561167057600080fd5b5035919050565b80356001600160a01b038116811461168e57600080fd5b919050565b600080604083850312156116a657600080fd5b6116af83611677565b946020939093013593505050565b6020808252825182820181905260009190848201906040850190845b818110156116fe5783516001600160a01b0316835292840192918401916001016116d9565b50909695505050505050565b60008060006060848603121561171f57600080fd5b61172884611677565b925061173660208501611677565b9150604084013590509250925092565b60006020828403121561175857600080fd5b6109c582611677565b6000806040838503121561177457600080fd5b61177d83611677565b91506020830135801515811461179257600080fd5b809150509250929050565b634e487b7160e01b600052604160045260246000fd5b600080600080608085870312156117c957600080fd5b6117d285611677565b93506117e060208601611677565b925060408501359150606085013567ffffffffffffffff8082111561180457600080fd5b818701915087601f83011261181857600080fd5b81358181111561182a5761182a61179d565b604051601f8201601f19908116603f011681019083821181831017156118525761185261179d565b816040528281528a602084870101111561186b57600080fd5b82602086016020830137600060208483010152809550505050505092959194509250565b600080604083850312156118a257600080fd5b6118ab83611677565b91506118b960208401611677565b90509250929050565b600181811c908216806118d657607f821691505b6020821081036105c157634e487b7160e01b600052602260045260246000fd5b634e487b7160e01b600052601160045260246000fd5b80820180821115610346576103466118f6565b634e487b7160e01b600052603260045260246000fd5b600060018201611947576119476118f6565b5060010190565b6020808252602d908201527f4552433732313a2063616c6c6572206973206e6f7420746f6b656e206f776e6560408201526c1c881bdc88185c1c1c9bdd9959609a1b606082015260800190565b600083516119ad8184602088016115fb565b8351908301906119c18183602088016115fb565b01949350505050565b60208082526025908201527f4552433732313a207472616e736665722066726f6d20696e636f72726563742060408201526437bbb732b960d91b606082015260800190565b60208082526032908201527f4552433732313a207472616e7366657220746f206e6f6e20455243373231526560408201527131b2b4bb32b91034b6b83632b6b2b73a32b960711b606082015260800190565b6001600160a01b0385811682528416602082015260408101839052608060608201819052600090611a949083018461161f565b9695505050505050565b600060208284031215611ab057600080fd5b81516109c5816115c8565b81810381811115610346576103466118f6565b634e487b7160e01b600052603160045260246000fdfea26469706673582212207bcbea3a1aa40d6035efeb0cc88d76f74262574c4b95fc51fa0f03869850a7e464736f6c63430008120033a2646970667358221220654eace6b0c0c81ba08b2d6169c0fd8b00048d36bed83f926f9b0769f4e93b6064736f6c63430008120033",
  "linkReferences": {},
  "deployedLinkReferences": {}
}